:02000000802B53
:0200030001906A
:02000B00019062
:02001300807BF0
:02001B0080451E
:02002300806BF0
:10002B0080637F7878087400F608DFFC75817F7534
:10003B0080007586FF7590FF900091782D7F06E408
:10004B0093F6A318DFF9758DFB75891075884075CC
:10005B00A8887586FF80FE758DFBC0D0C0E0E8C018
:10006B00E07590FFE52E2428F88680E52E9000A100
:10007B0093F590E52E04B40601E4F52ED0E0A8E04C
:10008B00D0E0D0D03232DE82ECE6B2767EC2FEF623
:0C009B001CBAF8FA2000FEFDFBF7EFDFB6
:00000001FF
